{
  "address": "0x8293505eC6b79abCA33106B1483205E4e5D73820",
  "abi": [
    {
      "inputs": [
        {
          "internalType": "uint256",
          "name": "_lockTime",
          "type": "uint256"
        },
        {
          "internalType": "address",
          "name": "addr",
          "type": "address"
        }
      ],
      "stateMutability": "nonpayable",
      "type": "constructor"
    },
    {
      "anonymous": false,
      "inputs": [
        {
          "indexed": false,
          "internalType": "uint256",
          "name": "",
          "type": "uint256"
        }
      ],
      "name": "FundWithdrawByOwner",
      "type": "event"
    },
    {
      "anonymous": false,
      "inputs": [
        {
          "indexed": false,
          "internalType": "address",
          "name": "",
          "type": "address"
        },
        {
          "indexed": false,
          "internalType": "uint256",
          "name": "",
          "type": "uint256"
        }
      ],
      "name": "RefundByFunder",
      "type": "event"
    },
    {
      "inputs": [],
      "name": "TARGET",
      "outputs": [
        {
          "internalType": "uint256",
          "name": "",
          "type": "uint256"
        }
      ],
      "stateMutability": "view",
      "type": "function"
    },
    {
      "inputs": [],
      "name": "dataFeed",
      "outputs": [
        {
          "internalType": "contract AggregatorV3Interface",
          "name": "",
          "type": "address"
        }
      ],
      "stateMutability": "view",
      "type": "function"
    },
    {
      "inputs": [],
      "name": "fund",
      "outputs": [],
      "stateMutability": "payable",
      "type": "function"
    },
    {
      "inputs": [
        {
          "internalType": "address",
          "name": "",
          "type": "address"
        }
      ],
      "name": "fundersToAmount",
      "outputs": [
        {
          "internalType": "uint256",
          "name": "",
          "type": "uint256"
        }
      ],
      "stateMutability": "view",
      "type": "function"
    },
    {
      "inputs": [],
      "name": "getChainlinkDataFeedLatestAnswer",
      "outputs": [
        {
          "internalType": "int256",
          "name": "",
          "type": "int256"
        }
      ],
      "stateMutability": "view",
      "type": "function"
    },
    {
      "inputs": [],
      "name": "getFund",
      "outputs": [],
      "stateMutability": "nonpayable",
      "type": "function"
    },
    {
      "inputs": [],
      "name": "getFund2",
      "outputs": [],
      "stateMutability": "nonpayable",
      "type": "function"
    },
    {
      "inputs": [],
      "name": "getFundSuccess",
      "outputs": [
        {
          "internalType": "bool",
          "name": "",
          "type": "bool"
        }
      ],
      "stateMutability": "view",
      "type": "function"
    },
    {
      "inputs": [],
      "name": "getfund1",
      "outputs": [
        {
          "internalType": "uint256",
          "name": "",
          "type": "uint256"
        }
      ],
      "stateMutability": "view",
      "type": "function"
    },
    {
      "inputs": [],
      "name": "owner",
      "outputs": [
        {
          "internalType": "address",
          "name": "",
          "type": "address"
        }
      ],
      "stateMutability": "view",
      "type": "function"
    },
    {
      "inputs": [],
      "name": "reFund",
      "outputs": [],
      "stateMutability": "nonpayable",
      "type": "function"
    },
    {
      "inputs": [
        {
          "internalType": "address",
          "name": "_erc20addr",
          "type": "address"
        }
      ],
      "name": "setErc20Addr",
      "outputs": [],
      "stateMutability": "nonpayable",
      "type": "function"
    },
    {
      "inputs": [
        {
          "internalType": "address",
          "name": "funder",
          "type": "address"
        },
        {
          "internalType": "uint256",
          "name": "amountToUpdate",
          "type": "uint256"
        }
      ],
      "name": "setFunderToAmount",
      "outputs": [],
      "stateMutability": "nonpayable",
      "type": "function"
    },
    {
      "inputs": [
        {
          "internalType": "address",
          "name": "newOwner",
          "type": "address"
        }
      ],
      "name": "transferOwnership",
      "outputs": [],
      "stateMutability": "nonpayable",
      "type": "function"
    }
  ],
  "transactionHash": "0x50ec072e94f60db30246dd77badc7aac7559c20f5d9ab8cb32b884c9d6fbfa76",
  "args": [
    180,
    "0x694AA1769357215DE4FAC081bf1f309aDC325306"
  ],
  "numDeployments": 2,
  "solcInputHash": "eb2bfcdeafea9a66dc1c6e80a8029c5a",
  "bytecode": "0x60806040526000600560146101000a81548160ff02191690831515021790555034801561002b57600080fd5b50604051611948380380611948833981810160405281019061004d919061017d565b80600160006101000a81548173ffffffffffffffffffffffffffffffffffffffff021916908373ffffffffffffffffffffffffffffffffffffffff16021790555033600260006101000a81548173ffffffffffffffffffffffffffffffffffffffff021916908373ffffffffffffffffffffffffffffffffffffffff160217905550426003819055508160048190555050506101bd565b600080fd5b6000819050919050565b6100fc816100e9565b811461010757600080fd5b50565b600081519050610119816100f3565b92915050565b600073ffffffffffffffffffffffffffffffffffffffff82169050919050565b600061014a8261011f565b9050919050565b61015a8161013f565b811461016557600080fd5b50565b60008151905061017781610151565b92915050565b60008060408385031215610194576101936100e4565b5b60006101a28582860161010a565b92505060206101b385828601610168565b9150509250929050565b61177c806101cc6000396000f3fe6080604052600436106100dd5760003560e01c8063b60d42881161007f578063cf0789ea11610059578063cf0789ea14610243578063d39cf0061461026e578063da4658e014610297578063f2fde38b146102c2576100dd565b8063b60d4288146101e3578063bea4dfb5146101ed578063cc1f2afa14610218576100dd565b80638da5cb5b116100bb5780638da5cb5b146101395780638edd6eb6146101645780639e42ff901461017b5780639f883a05146101a6576100dd565b80630ff0a4df146100e257806313ffff01146100f957806383635f7b14610122575b600080fd5b3480156100ee57600080fd5b506100f76102eb565b005b34801561010557600080fd5b50610120600480360381019061011b9190610df8565b6105c5565b005b34801561012e57600080fd5b50610137610699565b005b34801561014557600080fd5b5061014e61070a565b60405161015b9190610e34565b60405180910390f35b34801561017057600080fd5b50610179610730565b005b34801561018757600080fd5b506101906109b2565b60405161019d9190610eae565b60405180910390f35b3480156101b257600080fd5b506101cd60048036038101906101c89190610df8565b6109d8565b6040516101da9190610ee2565b60405180910390f35b6101eb6109f0565b005b3480156101f957600080fd5b50610202610aeb565b60405161020f9190610f16565b60405180910390f35b34801561022457600080fd5b5061022d610b8c565b60405161023a9190610ee2565b60405180910390f35b34801561024f57600080fd5b50610258610b99565b6040516102659190610ee2565b60405180910390f35b34801561027a57600080fd5b5061029560048036038101906102909190610f5d565b610ba1565b005b3480156102a357600080fd5b506102ac610c78565b6040516102b99190610fb8565b60405180910390f35b3480156102ce57600080fd5b506102e960048036038101906102e49190610df8565b610c8b565b005b6004546003546102fb9190611002565b42101561033d576040517f08c379a000000000000000000000000000000000000000000000000000000000815260040161033490611093565b60405180910390fd5b683635c9adc5dea0000061035047610d5f565b10610390576040517f08c379a0000000000000000000000000000000000000000000000000000000008152600401610387906110ff565b60405180910390fd5b60008060003373ffffffffffffffffffffffffffffffffffffffff1673ffffffffffffffffffffffffffffffffffffffff1681526020019081526020016000205403610411576040517f08c379a00000000000000000000000000000000000000000000000000000000081526004016104089061116b565b60405180910390fd5b6000806000803373ffffffffffffffffffffffffffffffffffffffff1673ffffffffffffffffffffffffffffffffffffffff16815260200190815260200160002054905060008111610498576040517f08c379a000000000000000000000000000000000000000000000000000000000815260040161048f906111d7565b60405180910390fd5b60008060003373ffffffffffffffffffffffffffffffffffffffff1673ffffffffffffffffffffffffffffffffffffffff168152602001908152602001600020819055503373ffffffffffffffffffffffffffffffffffffffff16816040516105009061124e565b60006040518083038185875af1925050503d806000811461053d576040519150601f19603f3d011682016040523d82523d6000602084013e610542565b606091505b50508092505081610588576040517f08c379a000000000000000000000000000000000000000000000000000000000815260040161057f906112af565b60405180910390fd5b7fc69be1ee5ac2aec580fb0927d8d940555d6f0a7bd11eed94b5b597056113da5f33826040516105b99291906112cf565b60405180910390a15050565b600260009054906101000a900473ffffffffffffffffffffffffffffffffffffffff1673ffffffffffffffffffffffffffffffffffffffff163373ffffffffffffffffffffffffffffffffffffffff1614610655576040517f08c379a000000000000000000000000000000000000000000000000000000000815260040161064c90611344565b60405180910390fd5b80600560006101000a81548173ffffffffffffffffffffffffffffffffffffffff021916908373ffffffffffffffffffffffffffffffffffffffff16021790555050565b60003373ffffffffffffffffffffffffffffffffffffffff16476040516106bf9061124e565b60006040518083038185875af1925050503d80600081146106fc576040519150601f19603f3d011682016040523d82523d6000602084013e610701565b606091505b50508091505050565b600260009054906101000a900473ffffffffffffffffffffffffffffffffffffffff1681565b600260009054906101000a900473ffffffffffffffffffffffffffffffffffffffff1673ffffffffffffffffffffffffffffffffffffffff163373ffffffffffffffffffffffffffffffffffffffff16146107c0576040517f08c379a00000000000000000000000000000000000000000000000000000000081526004016107b790611344565b60405180910390fd5b6004546003546107d09190611002565b421015610812576040517f08c379a000000000000000000000000000000000000000000000000000000000815260040161080990611093565b60405180910390fd5b683635c9adc5dea0000061082547610d5f565b1015610866576040517f08c379a000000000000000000000000000000000000000000000000000000000815260040161085d906113b0565b60405180910390fd5b6000804790503373ffffffffffffffffffffffffffffffffffffffff16476040516108909061124e565b60006040518083038185875af1925050503d80600081146108cd576040519150601f19603f3d011682016040523d82523d6000602084013e6108d2565b606091505b50508092505081610918576040517f08c379a000000000000000000000000000000000000000000000000000000000815260040161090f9061141c565b60405180910390fd5b60008060003373ffffffffffffffffffffffffffffffffffffffff1673ffffffffffffffffffffffffffffffffffffffff168152602001908152602001600020819055506001600560146101000a81548160ff0219169083151502179055507f2413e9342f4545ed6b87ad890930d6affc4c1914b742a3fad66c49d6d507c73b816040516109a69190610ee2565b60405180910390a15050565b600160009054906101000a900473ffffffffffffffffffffffffffffffffffffffff1681565b60006020528060005260406000206000915090505481565b678ac7230489e80000610a0234610d5f565b1015610a43576040517f08c379a0000000000000000000000000000000000000000000000000000000008152600401610a3a90611488565b60405180910390fd5b600454600354610a539190611002565b4210610a94576040517f08c379a0000000000000000000000000000000000000000000000000000000008152600401610a8b906114f4565b60405180910390fd5b346000803373ffffffffffffffffffffffffffffffffffffffff1673ffffffffffffffffffffffffffffffffffffffff1681526020019081526020016000206000828254610ae29190611002565b92505081905550565b600080600160009054906101000a900473ffffffffffffffffffffffffffffffffffffffff1673ffffffffffffffffffffffffffffffffffffffff1663feaf968c6040518163ffffffff1660e01b815260040160a060405180830381865afa158015610b5b573d6000803e3d6000fd5b505050506040513d601f19601f82011682018060405250810190610b7f9190611597565b5050509150508091505090565b683635c9adc5dea0000081565b600047905090565b600560009054906101000a900473ffffffffffffffffffffffffffffffffffffffff1673ffffffffffffffffffffffffffffffffffffffff163373ffffffffffffffffffffffffffffffffffffffff1614610c31576040517f08c379a0000000000000000000000000000000000000000000000000000000008152600401610c2890611684565b60405180910390fd5b806000808473ffffffffffffffffffffffffffffffffffffffff1673ffffffffffffffffffffffffffffffffffffffff168152602001908152602001600020819055505050565b600560149054906101000a900460ff1681565b600260009054906101000a900473ffffffffffffffffffffffffffffffffffffffff1673ffffffffffffffffffffffffffffffffffffffff163373ffffffffffffffffffffffffffffffffffffffff1614610d1b576040517f08c379a0000000000000000000000000000000000000000000000000000000008152600401610d1290611344565b60405180910390fd5b80600260006101000a81548173ffffffffffffffffffffffffffffffffffffffff021916908373ffffffffffffffffffffffffffffffffffffffff16021790555050565b600080610d6a610aeb565b905060006305f5e1008483610d7f91906116a4565b610d899190611715565b90508092505050919050565b600080fd5b600073ffffffffffffffffffffffffffffffffffffffff82169050919050565b6000610dc582610d9a565b9050919050565b610dd581610dba565b8114610de057600080fd5b50565b600081359050610df281610dcc565b92915050565b600060208284031215610e0e57610e0d610d95565b5b6000610e1c84828501610de3565b91505092915050565b610e2e81610dba565b82525050565b6000602082019050610e496000830184610e25565b92915050565b6000819050919050565b6000610e74610e6f610e6a84610d9a565b610e4f565b610d9a565b9050919050565b6000610e8682610e59565b9050919050565b6000610e9882610e7b565b9050919050565b610ea881610e8d565b82525050565b6000602082019050610ec36000830184610e9f565b92915050565b6000819050919050565b610edc81610ec9565b82525050565b6000602082019050610ef76000830184610ed3565b92915050565b6000819050919050565b610f1081610efd565b82525050565b6000602082019050610f2b6000830184610f07565b92915050565b610f3a81610ec9565b8114610f4557600080fd5b50565b600081359050610f5781610f31565b92915050565b60008060408385031215610f7457610f73610d95565b5b6000610f8285828601610de3565b9250506020610f9385828601610f48565b9150509250929050565b60008115159050919050565b610fb281610f9d565b82525050565b6000602082019050610fcd6000830184610fa9565b92915050565b7f4e487b7100000000000000000000000000000000000000000000000000000000600052601160045260246000fd5b600061100d82610ec9565b915061101883610ec9565b92508282019050808211156110305761102f610fd3565b5b92915050565b600082825260208201905092915050565b7f77696e646f77206973206e6f7420636c6f736564000000000000000000000000600082015250565b600061107d601483611036565b915061108882611047565b602082019050919050565b600060208201905081810360008301526110ac81611070565b9050919050565b7f5461726765742069732072656163686564000000000000000000000000000000600082015250565b60006110e9601183611036565b91506110f4826110b3565b602082019050919050565b60006020820190508181036000830152611118816110dc565b9050919050565b7f796f752068617665206e6f742066756e64000000000000000000000000000000600082015250565b6000611155601183611036565b91506111608261111f565b602082019050919050565b6000602082019050818103600083015261118481611148565b9050919050565b7f62616c616e6365206973206e756c6c0000000000000000000000000000000000600082015250565b60006111c1600f83611036565b91506111cc8261118b565b602082019050919050565b600060208201905081810360008301526111f0816111b4565b9050919050565b600081905092915050565b7f7169616e79656a756e0000000000000000000000000000000000000000000000600082015250565b60006112386009836111f7565b915061124382611202565b600982019050919050565b60006112598261122b565b9150819050919050565b7f7472616e73666572207478206661696c65640000000000000000000000000000600082015250565b6000611299601283611036565b91506112a482611263565b602082019050919050565b600060208201905081810360008301526112c88161128c565b9050919050565b60006040820190506112e46000830185610e25565b6112f16020830184610ed3565b9392505050565b7f6e6f74206f776e65722100000000000000000000000000000000000000000000600082015250565b600061132e600a83611036565b9150611339826112f8565b602082019050919050565b6000602082019050818103600083015261135d81611321565b9050919050565b7f546172676574206973206e6f7420726561636865640000000000000000000000600082015250565b600061139a601583611036565b91506113a582611364565b602082019050919050565b600060208201905081810360008301526113c98161138d565b9050919050565b7f7472616e73666572206661696c00000000000000000000000000000000000000600082015250565b6000611406600d83611036565b9150611411826113d0565b602082019050919050565b60006020820190508181036000830152611435816113f9565b9050919050565b7f53656e64206d6f72652045544821000000000000000000000000000000000000600082015250565b6000611472600e83611036565b915061147d8261143c565b602082019050919050565b600060208201905081810360008301526114a181611465565b9050919050565b7f77696e646f7720697320636c6f73656400000000000000000000000000000000600082015250565b60006114de601083611036565b91506114e9826114a8565b602082019050919050565b6000602082019050818103600083015261150d816114d1565b9050919050565b600069ffffffffffffffffffff82169050919050565b61153381611514565b811461153e57600080fd5b50565b6000815190506115508161152a565b92915050565b61155f81610efd565b811461156a57600080fd5b50565b60008151905061157c81611556565b92915050565b60008151905061159181610f31565b92915050565b600080600080600060a086880312156115b3576115b2610d95565b5b60006115c188828901611541565b95505060206115d28882890161156d565b94505060406115e388828901611582565b93505060606115f488828901611582565b925050608061160588828901611541565b9150509295509295909350565b7f796f7520646f206e6f742068617665207065726d697373696f6e20746f20636160008201527f6c6c20746869732066756e74696f6e0000000000000000000000000000000000602082015250565b600061166e602f83611036565b915061167982611612565b604082019050919050565b6000602082019050818103600083015261169d81611661565b9050919050565b60006116af82610ec9565b91506116ba83610ec9565b92508282026116c881610ec9565b915082820484148315176116df576116de610fd3565b5b5092915050565b7f4e487b7100000000000000000000000000000000000000000000000000000000600052601260045260246000fd5b600061172082610ec9565b915061172b83610ec9565b92508261173b5761173a6116e6565b5b82820490509291505056fea26469706673582212201304eb2757381652eb46a14a908b4190f25892394230bcaf58750a4fc952ef4e64736f6c634300081f0033",
  "devdoc": {
    "kind": "dev",
    "methods": {},
    "version": 1
  },
  "userdoc": {
    "kind": "user",
    "methods": {},
    "version": 1
  },
  "storageLayout": {
    "storage": [
      {
        "astId": 53,
        "contract": "contracts/FundMe.sol:FundMe",
        "label": "fundersToAmount",
        "offset": 0,
        "slot": "0",
        "type": "t_mapping(t_address,t_uint256)"
      },
      {
        "astId": 70,
        "contract": "contracts/FundMe.sol:FundMe",
        "label": "dataFeed",
        "offset": 0,
        "slot": "1",
        "type": "t_contract(AggregatorV3Interface)45"
      },
      {
        "astId": 72,
        "contract": "contracts/FundMe.sol:FundMe",
        "label": "owner",
        "offset": 0,
        "slot": "2",
        "type": "t_address"
      },
      {
        "astId": 74,
        "contract": "contracts/FundMe.sol:FundMe",
        "label": "deploumentTimestamp",
        "offset": 0,
        "slot": "3",
        "type": "t_uint256"
      },
      {
        "astId": 76,
        "contract": "contracts/FundMe.sol:FundMe",
        "label": "lockTime",
        "offset": 0,
        "slot": "4",
        "type": "t_uint256"
      },
      {
        "astId": 78,
        "contract": "contracts/FundMe.sol:FundMe",
        "label": "erc20Addr",
        "offset": 0,
        "slot": "5",
        "type": "t_address"
      },
      {
        "astId": 81,
        "contract": "contracts/FundMe.sol:FundMe",
        "label": "getFundSuccess",
        "offset": 20,
        "slot": "5",
        "type": "t_bool"
      }
    ],
    "types": {
      "t_address": {
        "encoding": "inplace",
        "label": "address",
        "numberOfBytes": "20"
      },
      "t_bool": {
        "encoding": "inplace",
        "label": "bool",
        "numberOfBytes": "1"
      },
      "t_contract(AggregatorV3Interface)45": {
        "encoding": "inplace",
        "label": "contract AggregatorV3Interface",
        "numberOfBytes": "20"
      },
      "t_mapping(t_address,t_uint256)": {
        "encoding": "mapping",
        "key": "t_address",
        "label": "mapping(address => uint256)",
        "numberOfBytes": "32",
        "value": "t_uint256"
      },
      "t_uint256": {
        "encoding": "inplace",
        "label": "uint256",
        "numberOfBytes": "32"
      }
    }
  }
}